{
  "contractName": "NftCollection",
  "abi": [
    {
      "inputs": [
        {
          "internalType": "string",
          "name": "name",
          "type": "string"
        },
        {
          "internalType": "string",
          "name": "symbol",
          "type": "string"
        },
        {
          "internalType": "uint256",
          "name": "maxTokens",
          "type": "uint256"
        },
        {
          "internalType": "address",
          "name": "firstOwner",
          "type": "address"
        }
      ],
      "stateMutability": "nonpayable",
      "type": "constructor"
    },
    {
      "anonymous": false,
      "inputs": [
        {
          "indexed": true,
          "internalType": "address",
          "name": "owner",
          "type": "address"
        },
        {
          "indexed": true,
          "internalType": "address",
          "name": "approved",
          "type": "address"
        },
        {
          "indexed": true,
          "internalType": "uint256",
          "name": "tokenId",
          "type": "uint256"
        }
      ],
      "name": "Approval",
      "type": "event"
    },
    {
      "anonymous": false,
      "inputs": [
        {
          "indexed": true,
          "internalType": "address",
          "name": "owner",
          "type": "address"
        },
        {
          "indexed": true,
          "internalType": "address",
          "name": "operator",
          "type": "address"
        },
        {
          "indexed": false,
          "internalType": "bool",
          "name": "approved",
          "type": "bool"
        }
      ],
      "name": "ApprovalForAll",
      "type": "event"
    },
    {
      "anonymous": false,
      "inputs": [
        {
          "indexed": true,
          "internalType": "address",
          "name": "previousOwner",
          "type": "address"
        },
        {
          "indexed": true,
          "internalType": "address",
          "name": "newOwner",
          "type": "address"
        }
      ],
      "name": "OwnershipTransferred",
      "type": "event"
    },
    {
      "anonymous": false,
      "inputs": [
        {
          "indexed": true,
          "internalType": "address",
          "name": "from",
          "type": "address"
        },
        {
          "indexed": true,
          "internalType": "address",
          "name": "to",
          "type": "address"
        },
        {
          "indexed": true,
          "internalType": "uint256",
          "name": "tokenId",
          "type": "uint256"
        }
      ],
      "name": "Transfer",
      "type": "event"
    },
    {
      "inputs": [
        {
          "internalType": "address",
          "name": "to",
          "type": "address"
        },
        {
          "internalType": "uint256",
          "name": "tokenId",
          "type": "uint256"
        }
      ],
      "name": "approve",
      "outputs": [],
      "stateMutability": "nonpayable",
      "type": "function"
    },
    {
      "inputs": [
        {
          "internalType": "address",
          "name": "owner",
          "type": "address"
        }
      ],
      "name": "balanceOf",
      "outputs": [
        {
          "internalType": "uint256",
          "name": "",
          "type": "uint256"
        }
      ],
      "stateMutability": "view",
      "type": "function"
    },
    {
      "inputs": [
        {
          "internalType": "uint256",
          "name": "tokenId",
          "type": "uint256"
        }
      ],
      "name": "getApproved",
      "outputs": [
        {
          "internalType": "address",
          "name": "",
          "type": "address"
        }
      ],
      "stateMutability": "view",
      "type": "function"
    },
    {
      "inputs": [
        {
          "internalType": "address",
          "name": "owner",
          "type": "address"
        },
        {
          "internalType": "address",
          "name": "operator",
          "type": "address"
        }
      ],
      "name": "isApprovedForAll",
      "outputs": [
        {
          "internalType": "bool",
          "name": "",
          "type": "bool"
        }
      ],
      "stateMutability": "view",
      "type": "function"
    },
    {
      "inputs": [],
      "name": "maxSupply",
      "outputs": [
        {
          "internalType": "uint256",
          "name": "",
          "type": "uint256"
        }
      ],
      "stateMutability": "view",
      "type": "function"
    },
    {
      "inputs": [],
      "name": "name",
      "outputs": [
        {
          "internalType": "string",
          "name": "",
          "type": "string"
        }
      ],
      "stateMutability": "view",
      "type": "function"
    },
    {
      "inputs": [
        {
          "internalType": "uint256",
          "name": "tokenId",
          "type": "uint256"
        }
      ],
      "name": "ownerOf",
      "outputs": [
        {
          "internalType": "address",
          "name": "",
          "type": "address"
        }
      ],
      "stateMutability": "view",
      "type": "function"
    },
    {
      "inputs": [
        {
          "internalType": "address",
          "name": "from",
          "type": "address"
        },
        {
          "internalType": "address",
          "name": "to",
          "type": "address"
        },
        {
          "internalType": "uint256",
          "name": "tokenId",
          "type": "uint256"
        }
      ],
      "name": "safeTransferFrom",
      "outputs": [],
      "stateMutability": "nonpayable",
      "type": "function"
    },
    {
      "inputs": [
        {
          "internalType": "address",
          "name": "from",
          "type": "address"
        },
        {
          "internalType": "address",
          "name": "to",
          "type": "address"
        },
        {
          "internalType": "uint256",
          "name": "tokenId",
          "type": "uint256"
        },
        {
          "internalType": "bytes",
          "name": "_data",
          "type": "bytes"
        }
      ],
      "name": "safeTransferFrom",
      "outputs": [],
      "stateMutability": "nonpayable",
      "type": "function"
    },
    {
      "inputs": [
        {
          "internalType": "address",
          "name": "operator",
          "type": "address"
        },
        {
          "internalType": "bool",
          "name": "approved",
          "type": "bool"
        }
      ],
      "name": "setApprovalForAll",
      "outputs": [],
      "stateMutability": "nonpayable",
      "type": "function"
    },
    {
      "inputs": [
        {
          "internalType": "bytes4",
          "name": "interfaceId",
          "type": "bytes4"
        }
      ],
      "name": "supportsInterface",
      "outputs": [
        {
          "internalType": "bool",
          "name": "",
          "type": "bool"
        }
      ],
      "stateMutability": "view",
      "type": "function"
    },
    {
      "inputs": [],
      "name": "symbol",
      "outputs": [
        {
          "internalType": "string",
          "name": "",
          "type": "string"
        }
      ],
      "stateMutability": "view",
      "type": "function"
    },
    {
      "inputs": [
        {
          "internalType": "uint256",
          "name": "index",
          "type": "uint256"
        }
      ],
      "name": "tokenByIndex",
      "outputs": [
        {
          "internalType": "uint256",
          "name": "",
          "type": "uint256"
        }
      ],
      "stateMutability": "view",
      "type": "function"
    },
    {
      "inputs": [
        {
          "internalType": "address",
          "name": "owner",
          "type": "address"
        },
        {
          "internalType": "uint256",
          "name": "index",
          "type": "uint256"
        }
      ],
      "name": "tokenOfOwnerByIndex",
      "outputs": [
        {
          "internalType": "uint256",
          "name": "",
          "type": "uint256"
        }
      ],
      "stateMutability": "view",
      "type": "function"
    },
    {
      "inputs": [],
      "name": "totalSupply",
      "outputs": [
        {
          "internalType": "uint256",
          "name": "",
          "type": "uint256"
        }
      ],
      "stateMutability": "view",
      "type": "function"
    },
    {
      "inputs": [
        {
          "internalType": "address",
          "name": "from",
          "type": "address"
        },
        {
          "internalType": "address",
          "name": "to",
          "type": "address"
        },
        {
          "internalType": "uint256",
          "name": "tokenId",
          "type": "uint256"
        }
      ],
      "name": "transferFrom",
      "outputs": [],
      "stateMutability": "nonpayable",
      "type": "function"
    },
    {
      "inputs": [
        {
          "internalType": "uint256",
          "name": "tokenId",
          "type": "uint256"
        }
      ],
      "name": "tokenURI",
      "outputs": [
        {
          "internalType": "string",
          "name": "",
          "type": "string"
        }
      ],
      "stateMutability": "view",
      "type": "function"
    },
    {
      "inputs": [
        {
          "internalType": "string",
          "name": "arweaveHash",
          "type": "string"
        }
      ],
      "name": "mintToken",
      "outputs": [],
      "stateMutability": "nonpayable",
      "type": "function"
    },
    {
      "inputs": [
        {
          "internalType": "address",
          "name": "addr",
          "type": "address"
        }
      ],
      "name": "tokensOfOwner",
      "outputs": [
        {
          "internalType": "uint256[]",
          "name": "",
          "type": "uint256[]"
        }
      ],
      "stateMutability": "view",
      "type": "function"
    },
    {
      "inputs": [],
      "name": "owner",
      "outputs": [
        {
          "internalType": "address",
          "name": "",
          "type": "address"
        }
      ],
      "stateMutability": "view",
      "type": "function"
    },
    {
      "inputs": [],
      "name": "renounceOwnership",
      "outputs": [],
      "stateMutability": "nonpayable",
      "type": "function"
    },
    {
      "inputs": [
        {
          "internalType": "address",
          "name": "newOwner",
          "type": "address"
        }
      ],
      "name": "transferOwnership",
      "outputs": [],
      "stateMutability": "nonpayable",
      "type": "function"
    }
  ],
  "bytecode": "0x60806040526000600b553480156200001657600080fd5b5060405162002501380380620025018339810160408190526200003991620002d6565b8351849084906200005290600090602085019062000185565b5080516200006890600190602084019062000185565b5050506000845111620000b2576040517f08c379a0000000000000000000000000000000000000000000000000000000008152600401620000a99062000367565b60405180910390fd5b6000835111620000f0576040517f08c379a0000000000000000000000000000000000000000000000000000000008152600401620000a9906200039e565b600082116200012d576040517f08c379a0000000000000000000000000000000000000000000000000000000008152600401620000a990620003d5565b600b829055600a8054600160a060020a031916600160a060020a0383169081179091556040516000907f8be0079c531659141344cd1fd0a4f28419497f9722a3daafe3b4186f6b6457e0908290a3505050506200048f565b82805462000193906200040a565b90600052602060002090601f016020900481019282620001b7576000855562000202565b82601f10620001d257805160ff191683800117855562000202565b8280016001018555821562000202579182015b8281111562000202578251825591602001919060010190620001e5565b506200021092915062000214565b5090565b5b8082111562000210576000815560010162000215565b600082601f8301126200023c578081fd5b81516001604060020a038082111562000259576200025962000460565b6040516020601f8401601f191682018101838111838210171562000281576200028162000460565b604052838252858401810187101562000298578485fd5b8492505b83831015620002bb57858301810151828401820152918201916200029c565b83831115620002cc57848185840101525b5095945050505050565b60008060008060808587031215620002ec578384fd5b84516001604060020a038082111562000303578586fd5b62000311888389016200022b565b9550602087015191508082111562000327578485fd5b5062000336878288016200022b565b6040870151606088015191955093509050600160a060020a03811681146200035c578182fd5b939692955090935050565b60208082526010908201527f6e616d6520697320726571756972656400000000000000000000000000000000604082015260600190565b60208082526012908201527f73796d626f6c2069732072657175697265640000000000000000000000000000604082015260600190565b6020808252818101527f6d6178546f6b656e73206d7573742062652067726561746572207468616e2030604082015260600190565b6002810460018216806200041f57607f821691505b602082108114156200045a577f4e487b7100000000000000000000000000000000000000000000000000000000600052602260045260246000fd5b50919050565b7f4e487b7100000000000000000000000000000000000000000000000000000000600052604160045260246000fd5b612062806200049f6000396000f3fe608060405234801561001057600080fd5b506004361061015f576000357c01000000000000000000000000000000000000000000000000000000009004806370a08231116100d5578063a22cb46511610099578063a22cb465146102a9578063b88d4fde146102bc578063c87b56dd146102cf578063d5abeb01146102e2578063e985e9c5146102ea578063f2fde38b146102fd5761015f565b806370a082311461025e578063715018a6146102715780638462151c146102795780638da5cb5b1461029957806395d89b41146102a15761015f565b806323b872dd1161012757806323b872dd146101ec5780632f745c59146101ff57806333eba49a1461021257806342842e0e146102255780634f6ccce7146102385780636352211e1461024b5761015f565b806301ffc9a71461016457806306fdde031461018d578063081812fc146101a2578063095ea7b3146101c257806318160ddd146101d7575b600080fd5b6101776101723660046116ad565b610310565b60405161018491906118b5565b60405180910390f35b610195610356565b60405161018491906118c0565b6101b56101b036600461172b565b6103e8565b6040516101849190611821565b6101d56101d0366004611684565b610437565b005b6101df6104d5565b6040516101849190611f1e565b6101d56101fa366004611596565b6104db565b6101df61020d366004611684565b610516565b6101d56102203660046116e5565b61056b565b6101d5610233366004611596565b610620565b6101df61024636600461172b565b61063b565b6101b561025936600461172b565b61069c565b6101df61026c366004611543565b6106d4565b6101d561071b565b61028c610287366004611543565b6107b4565b6040516101849190611871565b6101b56108e2565b6101956108f1565b6101d56102b736600461164a565b610900565b6101d56102ca3660046115d1565b6109d1565b6101956102dd36600461172b565b610a13565b6101df610a7b565b6101776102f8366004611564565b610a81565b6101d561030b366004611543565b610aaf565b6000600160e060020a031982167f780e9d6300000000000000000000000000000000000000000000000000000000148061034e575061034e82610b83565b90505b919050565b60606000805461036590611f8e565b80601f016020809104026020016040519081016040528092919081815260200182805461039190611f8e565b80156103de5780601f106103b3576101008083540402835291602001916103de565b820191906000526020600020905b8154815290600101906020018083116103c157829003601f168201915b5050505050905090565b60006103f382610bf5565b61041b5760405160e560020a62461bcd02815260040161041290611c5e565b60405180910390fd5b50600090815260046020526040902054600160a060020a031690565b60006104428261069c565b905080600160a060020a031683600160a060020a031614156104795760405160e560020a62461bcd02815260040161041290611e07565b80600160a060020a031661048b610c12565b600160a060020a031614806104a757506104a7816102f8610c12565b6104c65760405160e560020a62461bcd02815260040161041290611b12565b6104d08383610c16565b505050565b60085490565b6104ec6104e6610c12565b82610c91565b61050b5760405160e560020a62461bcd02815260040161041290611e64565b6104d0838383610d19565b6000610521836106d4565b82106105425760405160e560020a62461bcd028152600401610412906118d3565b50600160a060020a03919091166000908152600660209081526040808320938352929052205490565b610573610c12565b600160a060020a03166105846108e2565b600160a060020a0316146105ad5760405160e560020a62461bcd02815260040161041290611cbb565b600b546105b86104d5565b106105d85760405160e560020a62461bcd02815260040161041290611daa565b60006105e26104d5565b6105ed906001611f33565b6000818152600c602090815260409091208451929350610611929091850190611423565b5061061c3382610e59565b5050565b6104d0838383604051806020016040528060008152506109d1565b60006106456104d5565b82106106665760405160e560020a62461bcd02815260040161041290611ec1565b6008828154811061068a5760e060020a634e487b7102600052603260045260246000fd5b90600052602060002001549050919050565b600081815260026020526040812054600160a060020a03168061034e5760405160e560020a62461bcd02815260040161041290611bcc565b6000600160a060020a0382166106ff5760405160e560020a62461bcd02815260040161041290611b6f565b50600160a060020a031660009081526003602052604090205490565b610723610c12565b600160a060020a03166107346108e2565b600160a060020a03161461075d5760405160e560020a62461bcd02815260040161041290611cbb565b600a54604051600091600160a060020a0316907f8be0079c531659141344cd1fd0a4f28419497f9722a3daafe3b4186f6b6457e0908390a3600a805473ffffffffffffffffffffffffffffffffffffffff19169055565b606060006107c1836106d4565b9050806107de575050604080516000815260208101909152610351565b60008167ffffffffffffffff81111561080a5760e060020a634e487b7102600052604160045260246000fd5b604051908082528060200260200182016040528015610833578160200160208202803683370190505b50905060006108406104d5565b905060005b818110156108d05760006108588261063b565b905060006108658261069c565b905080600160a060020a031688600160a060020a031614156108bb5761088b8884610516565b8584815181106108ae5760e060020a634e487b7102600052603260045260246000fd5b6020026020010181815250505b505080806108c890611fc6565b915050610845565b82945050505050610351565b50919050565b600a54600160a060020a031690565b60606001805461036590611f8e565b610908610c12565b600160a060020a031682600160a060020a0316141561093c5760405160e560020a62461bcd02815260040161041290611a7e565b8060056000610949610c12565b600160a060020a03908116825260208083019390935260409182016000908120918716808252919093529120805460ff19169215159290921790915561098d610c12565b600160a060020a03167f17307eab39ab6107e8899845ad3d59bd9653f200f220920489ca2b5937696c31836040516109c591906118b5565b60405180910390a35050565b6109e26109dc610c12565b83610c91565b610a015760405160e560020a62461bcd02815260040161041290611e64565b610a0d84848484610e73565b50505050565b6060610a1e82610bf5565b610a3d5760405160e560020a62461bcd02815260040161041290611d4d565b610a45610ea9565b6000838152600c60209081526040918290209151610a659392910161176f565b6040516020818303038152906040529050919050565b600b5481565b600160a060020a03918216600090815260056020908152604080832093909416825291909152205460ff1690565b610ab7610c12565b600160a060020a0316610ac86108e2565b600160a060020a031614610af15760405160e560020a62461bcd02815260040161041290611cbb565b600160a060020a038116610b1a5760405160e560020a62461bcd0281526004016104129061198d565b600a54604051600160a060020a038084169216907f8be0079c531659141344cd1fd0a4f28419497f9722a3daafe3b4186f6b6457e090600090a3600a805473ffffffffffffffffffffffffffffffffffffffff1916600160a060020a0392909216919091179055565b6000600160e060020a031982167f80ac58cd000000000000000000000000000000000000000000000000000000001480610be65750600160e060020a031982167f5b5e139f00000000000000000000000000000000000000000000000000000000145b8061034e575061034e82610ee0565b600090815260026020526040902054600160a060020a0316151590565b3390565b6000818152600460205260409020805473ffffffffffffffffffffffffffffffffffffffff1916600160a060020a0384169081179091558190610c588261069c565b600160a060020a03167f8c5be1e5ebec7d5bd14f71427d1e84f3dd0314c0f7b2291e5b200ac8c7c3b92560405160405180910390a45050565b6000610c9c82610bf5565b610cbb5760405160e560020a62461bcd02815260040161041290611ab5565b6000610cc68361069c565b905080600160a060020a031684600160a060020a03161480610d01575083600160a060020a0316610cf6846103e8565b600160a060020a0316145b80610d115750610d118185610a81565b949350505050565b82600160a060020a0316610d2c8261069c565b600160a060020a031614610d555760405160e560020a62461bcd02815260040161041290611cf0565b600160a060020a038216610d7e5760405160e560020a62461bcd02815260040161041290611a21565b610d89838383610f12565b610d94600082610c16565b600160a060020a0383166000908152600360205260408120805460019290610dbd908490611f4b565b9091555050600160a060020a0382166000908152600360205260408120805460019290610deb908490611f33565b9091555050600081815260026020526040808220805473ffffffffffffffffffffffffffffffffffffffff1916600160a060020a0386811691821790925591518493918716917fddf252ad1be2c89b69c2b068fc378daa952ba7f163c4a11628f55a4df523b3ef91a4505050565b61061c828260405180602001604052806000815250610f9b565b610e7e848484610d19565b610e8a84848484610fd1565b610a0d5760405160e560020a62461bcd02815260040161041290611930565b60408051808201909152601481527f68747470733a2f2f617277656176652e6e65742f000000000000000000000000602082015290565b600160e060020a031981167f01ffc9a70000000000000000000000000000000000000000000000000000000014919050565b610f1d8383836104d0565b600160a060020a038316610f3957610f3481611124565b610f5c565b81600160a060020a031683600160a060020a031614610f5c57610f5c8382611168565b600160a060020a038216610f7857610f7381611205565b6104d0565b82600160a060020a031682600160a060020a0316146104d0576104d082826112e7565b610fa5838361132b565b610fb26000848484610fd1565b6104d05760405160e560020a62461bcd02815260040161041290611930565b6000610fe584600160a060020a031661141d565b156111195783600160a060020a031663150b7a02611001610c12565b8786866040518563ffffffff167c010000000000000000000000000000000000000000000000000000000002815260040161103f9493929190611835565b602060405180830381600087803b15801561105957600080fd5b505af1925050508015611089575060408051601f3d908101601f19168201909252611086918101906116c9565b60015b6110e6573d8080156110b7576040519150601f19603f3d011682016040523d82523d6000602084013e6110bc565b606091505b5080516110de5760405160e560020a62461bcd02815260040161041290611930565b805181602001fd5b600160e060020a0319167f150b7a0200000000000000000000000000000000000000000000000000000000149050610d11565b506001949350505050565b600880546000838152600960205260408120829055600182018355919091527ff3f7a9fe364faab93b216da50a3214154f22a0a2b415b23a84c8169e8b636ee30155565b60006001611175846106d4565b61117f9190611f4b565b6000838152600760205260409020549091508082146111d257600160a060020a03841660009081526006602090815260408083208584528252808320548484528184208190558352600790915290208190555b506000918252600760209081526040808420849055600160a060020a039094168352600681528383209183525290812055565b60085460009061121790600190611f4b565b600083815260096020526040812054600880549394509092849081106112505760e060020a634e487b7102600052603260045260246000fd5b9060005260206000200154905080600883815481106112825760e060020a634e487b7102600052603260045260246000fd5b60009182526020808320909101929092558281526009909152604080822084905585825281205560088054806112cb5760e060020a634e487b7102600052603160045260246000fd5b6001900381819060005260206000200160009055905550505050565b60006112f2836106d4565b600160a060020a039093166000908152600660209081526040808320868452825280832085905593825260079052919091209190915550565b600160a060020a0382166113545760405160e560020a62461bcd02815260040161041290611c29565b61135d81610bf5565b1561137d5760405160e560020a62461bcd028152600401610412906119ea565b61138960008383610f12565b600160a060020a03821660009081526003602052604081208054600192906113b2908490611f33565b9091555050600081815260026020526040808220805473ffffffffffffffffffffffffffffffffffffffff1916600160a060020a03861690811790915590518392907fddf252ad1be2c89b69c2b068fc378daa952ba7f163c4a11628f55a4df523b3ef908290a45050565b3b151590565b82805461142f90611f8e565b90600052602060002090601f0160209004810192826114515760008555611497565b82601f1061146a57805160ff1916838001178555611497565b82800160010185558215611497579182015b8281111561149757825182559160200191906001019061147c565b506114a39291506114a7565b5090565b5b808211156114a357600081556001016114a8565b600067ffffffffffffffff808411156114d7576114d7611ffa565b604051601f8501601f1916810160200182811182821017156114fb576114fb611ffa565b60405284815291508183850186101561151357600080fd5b8484602083013760006020868301015250509392505050565b8035600160a060020a038116811461035157600080fd5b600060208284031215611554578081fd5b61155d8261152c565b9392505050565b60008060408385031215611576578081fd5b61157f8361152c565b915061158d6020840161152c565b90509250929050565b6000806000606084860312156115aa578081fd5b6115b38461152c565b92506115c16020850161152c565b9150604084013590509250925092565b600080600080608085870312156115e6578081fd5b6115ef8561152c565b93506115fd6020860161152c565b925060408501359150606085013567ffffffffffffffff81111561161f578182fd5b8501601f8101871361162f578182fd5b61163e878235602084016114bc565b91505092959194509250565b6000806040838503121561165c578182fd5b6116658361152c565b915060208301358015158114611679578182fd5b809150509250929050565b60008060408385031215611696578182fd5b61169f8361152c565b946020939093013593505050565b6000602082840312156116be578081fd5b813561155d81612013565b6000602082840312156116da578081fd5b815161155d81612013565b6000602082840312156116f6578081fd5b813567ffffffffffffffff81111561170c578182fd5b8201601f8101841361171c578182fd5b610d11848235602084016114bc565b60006020828403121561173c578081fd5b5035919050565b6000815180845261175b816020860160208601611f62565b601f01601f19169290920160200192915050565b6000835160206117828285838901611f62565b84549184019183906002810460018083168061179f57607f831692505b8583108114156117c05760e060020a634e487b710288526022600452602488fd5b8080156117d457600181146117e557611811565b60ff19851688528388019550611811565b6117ee8b611f27565b895b858110156118095781548a8201529084019088016117f0565b505083880195505b50939a9950505050505050505050565b600160a060020a0391909116815260200190565b6000600160a060020a038087168352808616602084015250836040830152608060608301526118676080830184611743565b9695505050505050565b6020808252825182820181905260009190848201906040850190845b818110156118a95783518352928401929184019160010161188d565b50909695505050505050565b901515815260200190565b60006020825261155d6020830184611743565b6020808252602b908201527f455243373231456e756d657261626c653a206f776e657220696e646578206f7560408201527f74206f6620626f756e6473000000000000000000000000000000000000000000606082015260800190565b60208082526032908201527f4552433732313a207472616e7366657220746f206e6f6e20455243373231526560408201527f63656976657220696d706c656d656e7465720000000000000000000000000000606082015260800190565b60208082526026908201527f4f776e61626c653a206e6577206f776e657220697320746865207a65726f206160408201527f6464726573730000000000000000000000000000000000000000000000000000606082015260800190565b6020808252601c908201527f4552433732313a20746f6b656e20616c7265616479206d696e74656400000000604082015260600190565b60208082526024908201527f4552433732313a207472616e7366657220746f20746865207a65726f2061646460408201527f7265737300000000000000000000000000000000000000000000000000000000606082015260800190565b60208082526019908201527f4552433732313a20617070726f766520746f2063616c6c657200000000000000604082015260600190565b6020808252602c908201527f4552433732313a206f70657261746f7220717565727920666f72206e6f6e657860408201527f697374656e7420746f6b656e0000000000000000000000000000000000000000606082015260800190565b60208082526038908201527f4552433732313a20617070726f76652063616c6c6572206973206e6f74206f7760408201527f6e6572206e6f7220617070726f76656420666f7220616c6c0000000000000000606082015260800190565b6020808252602a908201527f4552433732313a2062616c616e636520717565727920666f7220746865207a6560408201527f726f206164647265737300000000000000000000000000000000000000000000606082015260800190565b60208082526029908201527f4552433732313a206f776e657220717565727920666f72206e6f6e657869737460408201527f656e7420746f6b656e0000000000000000000000000000000000000000000000606082015260800190565b6020808252818101527f4552433732313a206d696e7420746f20746865207a65726f2061646472657373604082015260600190565b6020808252602c908201527f4552433732313a20617070726f76656420717565727920666f72206e6f6e657860408201527f697374656e7420746f6b656e0000000000000000000000000000000000000000606082015260800190565b6020808252818101527f4f776e61626c653a2063616c6c6572206973206e6f7420746865206f776e6572604082015260600190565b60208082526029908201527f4552433732313a207472616e73666572206f6620746f6b656e2074686174206960408201527f73206e6f74206f776e0000000000000000000000000000000000000000000000606082015260800190565b6020808252602f908201527f4552433732314d657461646174613a2055524920717565727920666f72206e6f60408201527f6e6578697374656e7420746f6b656e0000000000000000000000000000000000606082015260800190565b60208082526029908201527f546865206d696e7420636f756e74206578636565647320746865206d6178696d60408201527f756d20737570706c790000000000000000000000000000000000000000000000606082015260800190565b60208082526021908201527f4552433732313a20617070726f76616c20746f2063757272656e74206f776e6560408201527f7200000000000000000000000000000000000000000000000000000000000000606082015260800190565b60208082526031908201527f4552433732313a207472616e736665722063616c6c6572206973206e6f74206f60408201527f776e6572206e6f7220617070726f766564000000000000000000000000000000606082015260800190565b6020808252602c908201527f455243373231456e756d657261626c653a20676c6f62616c20696e646578206f60408201527f7574206f6620626f756e64730000000000000000000000000000000000000000606082015260800190565b90815260200190565b60009081526020902090565b60008219821115611f4657611f46611fe1565b500190565b600082821015611f5d57611f5d611fe1565b500390565b60005b83811015611f7d578181015183820152602001611f65565b83811115610a0d5750506000910152565b600281046001821680611fa257607f821691505b602082108114156108dc5760e060020a634e487b7102600052602260045260246000fd5b6000600019821415611fda57611fda611fe1565b5060010190565b60e060020a634e487b7102600052601160045260246000fd5b60e060020a634e487b7102600052604160045260246000fd5b600160e060020a03198116811461202957600080fd5b5056fea2646970667358221220060e525aace3f41eb450213a4b7b302487e6d02228d11a7fd86572d6d793eed764736f6c63430008000033",
  "immutableReferences": {},
  "source": "// SPDX-License-Identifier: MIT\r\npragma solidity ^0.8.0;\r\n\r\nimport \"@openzeppelin/contracts/token/ERC721/extensions/ERC721Enumerable.sol\";\r\n\r\ncontract NftCollection is ERC721Enumerable {\r\n    address private _owner;\r\n    uint public maxSupply = 0;\r\n    //address public _parent;\r\n    mapping (uint256 => string) private _arweaveHashes;\r\n\r\n    event OwnershipTransferred(address indexed previousOwner, address indexed newOwner);\r\n\r\n    constructor(string memory name, string memory symbol, uint maxTokens, address firstOwner) ERC721(name, symbol)  {\r\n        // The constructor runs when the contract is deployed.\r\n        // The sender is the wallet that deployed the contract.\r\n        require(bytes(name).length > 0, \"name is required\");\r\n        require(bytes(symbol).length > 0, \"symbol is required\");\r\n        require(maxTokens > 0, \"maxTokens must be greater than 0\");\r\n        maxSupply = maxTokens;\r\n\r\n        _owner = firstOwner;\r\n        emit OwnershipTransferred(address(0), firstOwner);\r\n    }\r\n\r\n    function _baseURI() internal pure override returns (string memory) {\r\n        // Each token will be assigned a unique hash for the JSON metadata file.\r\n        // The hash will be appended to this base URL. Ex: _tgG0KrXYCkTby6LVK6IUkP42blKjX5XXGiwqS9n46o\r\n        return \"https://arweave.net/\";\r\n    }\r\n\r\n    function tokenURI(uint256 tokenId) public view override returns (string memory) {\r\n        require(_exists(tokenId), \"ERC721Metadata: URI query for nonexistent token\");\r\n        return string(abi.encodePacked(_baseURI(), _arweaveHashes[tokenId]));\r\n    }\r\n    \r\n    //The owner is the parent contract.\r\n    //TODO: Should we pass an entire array of hashes to mint all at once?\r\n    function mintToken(string memory arweaveHash) public onlyOwner {\r\n        require(totalSupply() < maxSupply, \"The mint count exceeds the maximum supply\");\r\n        uint256 tokenId = totalSupply() + 1;\r\n        _arweaveHashes[tokenId] = arweaveHash;\r\n        _safeMint(msg.sender, tokenId);\r\n    }\r\n\r\n    //Get all tokens owned by an address.\r\n    function tokensOfOwner(address addr) external view returns(uint256[] memory ) {\r\n        uint256 tokenCount = balanceOf(addr);\r\n        if (tokenCount == 0) {\r\n            return new uint256[](0);\r\n        } else {\r\n            uint256[] memory result = new uint256[](tokenCount);\r\n            uint256 total = totalSupply();\r\n            uint256 index;\r\n            for (index = 0; index < total; index++) {\r\n                uint256 tokenId = tokenByIndex(index);\r\n                address tokenOwner = ownerOf(tokenId);\r\n                if (addr == tokenOwner) {\r\n                   result[index] = tokenOfOwnerByIndex(addr, index);\r\n                }\r\n            }\r\n            return result;\r\n        }\r\n    }\r\n\r\n\r\n\r\n    //Ownable.sol methods. Cannot inherit since owner is passed to constructor.\r\n\r\n    /**\r\n     * @dev Returns the address of the current owner.\r\n     */\r\n    function owner() public view virtual returns (address) {\r\n        return _owner;\r\n    }\r\n\r\n    /**\r\n     * @dev Throws if called by any account other than the owner.\r\n     */\r\n    modifier onlyOwner() {\r\n        require(owner() == _msgSender(), \"Ownable: caller is not the owner\");\r\n        _;\r\n    }\r\n\r\n    /**\r\n     * @dev Leaves the contract without owner. It will not be possible to call\r\n     * `onlyOwner` functions anymore. Can only be called by the current owner.\r\n     *\r\n     * NOTE: Renouncing ownership will leave the contract without an owner,\r\n     * thereby removing any functionality that is only available to the owner.\r\n     */\r\n    function renounceOwnership() public virtual onlyOwner {\r\n        emit OwnershipTransferred(_owner, address(0));\r\n        _owner = address(0);\r\n    }\r\n\r\n    /**\r\n     * @dev Transfers ownership of the contract to a new account (`newOwner`).\r\n     * Can only be called by the current owner.\r\n     */\r\n    function transferOwnership(address newOwner) public virtual onlyOwner {\r\n        require(newOwner != address(0), \"Ownable: new owner is the zero address\");\r\n        emit OwnershipTransferred(_owner, newOwner);\r\n        _owner = newOwner;\r\n    }\r\n}",
  "sourcePath": "C:/__/NFT/nft-minter/solidity/contracts/NftCollection.sol",
  "compiler": {
    "name": "solc",
    "version": "0.8.0+commit.c7dfd78e.Emscripten.clang"
  },
  "schemaVersion": "3.3.4",
  "updatedAt": "2021-07-31T15:43:37.934Z",
  "devdoc": {
    "kind": "dev",
    "methods": {
      "approve(address,uint256)": {
        "details": "See {IERC721-approve}."
      },
      "balanceOf(address)": {
        "details": "See {IERC721-balanceOf}."
      },
      "getApproved(uint256)": {
        "details": "See {IERC721-getApproved}."
      },
      "isApprovedForAll(address,address)": {
        "details": "See {IERC721-isApprovedForAll}."
      },
      "name()": {
        "details": "See {IERC721Metadata-name}."
      },
      "owner()": {
        "details": "Returns the address of the current owner."
      },
      "ownerOf(uint256)": {
        "details": "See {IERC721-ownerOf}."
      },
      "renounceOwnership()": {
        "details": "Leaves the contract without owner. It will not be possible to call `onlyOwner` functions anymore. Can only be called by the current owner. NOTE: Renouncing ownership will leave the contract without an owner, thereby removing any functionality that is only available to the owner."
      },
      "safeTransferFrom(address,address,uint256)": {
        "details": "See {IERC721-safeTransferFrom}."
      },
      "safeTransferFrom(address,address,uint256,bytes)": {
        "details": "See {IERC721-safeTransferFrom}."
      },
      "setApprovalForAll(address,bool)": {
        "details": "See {IERC721-setApprovalForAll}."
      },
      "supportsInterface(bytes4)": {
        "details": "See {IERC165-supportsInterface}."
      },
      "symbol()": {
        "details": "See {IERC721Metadata-symbol}."
      },
      "tokenByIndex(uint256)": {
        "details": "See {IERC721Enumerable-tokenByIndex}."
      },
      "tokenOfOwnerByIndex(address,uint256)": {
        "details": "See {IERC721Enumerable-tokenOfOwnerByIndex}."
      },
      "tokenURI(uint256)": {
        "details": "See {IERC721Metadata-tokenURI}."
      },
      "totalSupply()": {
        "details": "See {IERC721Enumerable-totalSupply}."
      },
      "transferFrom(address,address,uint256)": {
        "details": "See {IERC721-transferFrom}."
      },
      "transferOwnership(address)": {
        "details": "Transfers ownership of the contract to a new account (`newOwner`). Can only be called by the current owner."
      }
    },
    "version": 1
  },
  "userdoc": {
    "kind": "user",
    "methods": {},
    "version": 1
  }
}