{
  "contractName": "NftFactory",
  "abi": [
    {
      "anonymous": false,
      "inputs": [
        {
          "indexed": false,
          "internalType": "address",
          "name": "owner",
          "type": "address"
        },
        {
          "indexed": false,
          "internalType": "address",
          "name": "contractAddress",
          "type": "address"
        }
      ],
      "name": "CollectionCreated",
      "type": "event"
    },
    {
      "anonymous": false,
      "inputs": [
        {
          "indexed": false,
          "internalType": "address",
          "name": "owner",
          "type": "address"
        },
        {
          "indexed": false,
          "internalType": "uint256",
          "name": "amount",
          "type": "uint256"
        }
      ],
      "name": "OwnerWithdrawal",
      "type": "event"
    },
    {
      "anonymous": false,
      "inputs": [
        {
          "indexed": true,
          "internalType": "address",
          "name": "previousOwner",
          "type": "address"
        },
        {
          "indexed": true,
          "internalType": "address",
          "name": "newOwner",
          "type": "address"
        }
      ],
      "name": "OwnershipTransferred",
      "type": "event"
    },
    {
      "inputs": [],
      "name": "owner",
      "outputs": [
        {
          "internalType": "address",
          "name": "",
          "type": "address"
        }
      ],
      "stateMutability": "view",
      "type": "function",
      "constant": true
    },
    {
      "inputs": [],
      "name": "renounceOwnership",
      "outputs": [],
      "stateMutability": "nonpayable",
      "type": "function"
    },
    {
      "inputs": [
        {
          "internalType": "address",
          "name": "newOwner",
          "type": "address"
        }
      ],
      "name": "transferOwnership",
      "outputs": [],
      "stateMutability": "nonpayable",
      "type": "function"
    },
    {
      "inputs": [
        {
          "internalType": "string",
          "name": "name",
          "type": "string"
        },
        {
          "internalType": "string",
          "name": "symbol",
          "type": "string"
        },
        {
          "internalType": "uint256",
          "name": "maxTokens",
          "type": "uint256"
        }
      ],
      "name": "createCollection",
      "outputs": [],
      "stateMutability": "payable",
      "type": "function",
      "payable": true
    },
    {
      "inputs": [],
      "name": "getWallets",
      "outputs": [
        {
          "internalType": "address[]",
          "name": "",
          "type": "address[]"
        }
      ],
      "stateMutability": "view",
      "type": "function",
      "constant": true
    },
    {
      "inputs": [
        {
          "internalType": "address",
          "name": "wallet",
          "type": "address"
        }
      ],
      "name": "getWalletContracts",
      "outputs": [
        {
          "internalType": "address[]",
          "name": "",
          "type": "address[]"
        }
      ],
      "stateMutability": "view",
      "type": "function",
      "constant": true
    },
    {
      "inputs": [],
      "name": "getCurrentPrice",
      "outputs": [
        {
          "internalType": "uint256",
          "name": "",
          "type": "uint256"
        }
      ],
      "stateMutability": "view",
      "type": "function",
      "constant": true
    },
    {
      "inputs": [
        {
          "internalType": "uint256",
          "name": "newPrice",
          "type": "uint256"
        }
      ],
      "name": "updatePrice",
      "outputs": [],
      "stateMutability": "nonpayable",
      "type": "function"
    },
    {
      "inputs": [],
      "name": "getBalance",
      "outputs": [
        {
          "internalType": "uint256",
          "name": "",
          "type": "uint256"
        }
      ],
      "stateMutability": "view",
      "type": "function",
      "constant": true
    },
    {
      "inputs": [
        {
          "internalType": "address",
          "name": "to",
          "type": "address"
        },
        {
          "internalType": "uint256",
          "name": "amount",
          "type": "uint256"
        }
      ],
      "name": "withdraw",
      "outputs": [],
      "stateMutability": "nonpayable",
      "type": "function"
    }
  ],
  "bytecode": "0x6080604052670de0b6b3a764000060015534801561001c57600080fd5b50600061003064010000000061007f810204565b60008054600160a060020a031916600160a060020a0383169081178255604051929350917f8be0079c531659141344cd1fd0a4f28419497f9722a3daafe3b4186f6b6457e0908290a350610083565b3390565b6130f2806100926000396000f3fe608060405260043610620000bb576000357c010000000000000000000000000000000000000000000000000000000090048063da8cac5a116200007e578063da8cac5a146200016d578063db7a460514620001a1578063eb91d37e14620001b9578063f2fde38b14620001d1578063f3fef3a314620001f657620000bb565b806312065fe014620000c05780634197ed7414620000f0578063715018a614620001095780638d6cc56d14620001215780638da5cb5b1462000146575b600080fd5b348015620000cd57600080fd5b50620000d86200021b565b604051620000e7919062000b83565b60405180910390f35b62000107620001013660046200089e565b62000275565b005b3480156200011657600080fd5b5062000107620003f6565b3480156200012e57600080fd5b5062000107620001403660046200090f565b62000496565b3480156200015357600080fd5b506200015e620004e4565b604051620000e79190620009c5565b3480156200017a57600080fd5b50620001926200018c3660046200084e565b620004f3565b604051620000e7919062000a0c565b348015620001ae57600080fd5b50620001926200056c565b348015620001c657600080fd5b50620000d8620005d0565b348015620001de57600080fd5b5062000107620001f03660046200084e565b620005d6565b3480156200020357600080fd5b50620001076200021536600462000872565b620006b3565b6000620002276200079b565b600160a060020a03166200023a620004e4565b600160a060020a0316146200026f5760405160e560020a62461bcd028152600401620002669062000b4e565b60405180910390fd5b50303190565b6001543410156040516020016200028c9062000976565b60405160208183030381529060405290620002bf5760405160e560020a62461bcd02815260040162000266919062000a5b565b50600083838333604051620002d4906200079f565b620002e3949392919062000a70565b604051809103906000f08015801562000300573d6000803e3d6000fd5b503360009081526003602052604090205490915081901515806200036e57600480546001810182556000919091527f8a35acfbc15ff81a39ae7d344fd709f28e8600b4aa8c65c6b64bfe7fe36bd19b01805473ffffffffffffffffffffffffffffffffffffffff1916331790555b33600081815260036020908152604080832080546001810182559084529190922001805473ffffffffffffffffffffffffffffffffffffffff1916600160a060020a038616179055517f5d0de243db1669e3a7056744cd715c625f0c1c348736c2c2d53d0ddebff1a6c791620003e6918590620009d9565b60405180910390a1505050505050565b620004006200079b565b600160a060020a031662000413620004e4565b600160a060020a0316146200043f5760405160e560020a62461bcd028152600401620002669062000b4e565b60008054604051600160a060020a03909116907f8be0079c531659141344cd1fd0a4f28419497f9722a3daafe3b4186f6b6457e0908390a36000805473ffffffffffffffffffffffffffffffffffffffff19169055565b620004a06200079b565b600160a060020a0316620004b3620004e4565b600160a060020a031614620004df5760405160e560020a62461bcd028152600401620002669062000b4e565b600155565b600054600160a060020a031690565b600160a060020a0381166000908152600360209081526040918290208054835181840281018401909452808452606093928301828280156200055f57602002820191906000526020600020905b8154600160a060020a0316815260019091019060200180831162000540575b505050505090505b919050565b60606004805480602002602001604051908101604052809291908181526020018280548015620005c657602002820191906000526020600020905b8154600160a060020a03168152600190910190602001808311620005a7575b5050505050905090565b60015490565b620005e06200079b565b600160a060020a0316620005f3620004e4565b600160a060020a0316146200061f5760405160e560020a62461bcd028152600401620002669062000b4e565b600160a060020a0381166200064b5760405160e560020a62461bcd028152600401620002669062000aba565b60008054604051600160a060020a03808516939216917f8be0079c531659141344cd1fd0a4f28419497f9722a3daafe3b4186f6b6457e091a36000805473ffffffffffffffffffffffffffffffffffffffff1916600160a060020a0392909216919091179055565b620006bd6200079b565b600160a060020a0316620006d0620004e4565b600160a060020a031614620006fc5760405160e560020a62461bcd028152600401620002669062000b4e565b3031818111620007235760405160e560020a62461bcd028152600401620002669062000b17565b604051600160a060020a0384169083156108fc029084906000818181858888f193505050501580156200075a573d6000803e3d6000fd5b507fa919fadcfa556a012bab31b15f596ea7ccd397adbf10e15f176db9055ab361c483836040516200078e929190620009f3565b60405180910390a1505050565b3390565b6125018062000bbc83390190565b8035600160a060020a03811681146200056757600080fd5b600082601f830112620007d6578081fd5b813567ffffffffffffffff80821115620007f457620007f462000b8c565b604051601f8301601f1916810160200182811182821017156200081b576200081b62000b8c565b60405282815284830160200186101562000833578384fd5b82602086016020830137918201602001929092529392505050565b60006020828403121562000860578081fd5b6200086b82620007ad565b9392505050565b6000806040838503121562000885578081fd5b6200089083620007ad565b946020939093013593505050565b600080600060608486031215620008b3578081fd5b833567ffffffffffffffff80821115620008cb578283fd5b620008d987838801620007c5565b94506020860135915080821115620008ef578283fd5b50620008fe86828701620007c5565b925050604084013590509250925092565b60006020828403121562000921578081fd5b5035919050565b60008151808452815b818110156200094f5760208185018101518683018201520162000931565b81811115620009615782602083870101525b50601f01601f19169290920160200192915050565b7f54686520707269636520746f20637265617465206120636f6c6c656374696f6e81527f20776173206e6f74206d65742e000000000000000000000000000000000000006020820152602d0190565b600160a060020a0391909116815260200190565b600160a060020a0392831681529116602082015260400190565b600160a060020a03929092168252602082015260400190565b6020808252825182820181905260009190848201906040850190845b8181101562000a4f578351600160a060020a03168352928401929184019160010162000a28565b50909695505050505050565b6000602082526200086b602083018462000928565b60006080825262000a85608083018762000928565b828103602084015262000a99818762000928565b915050836040830152600160a060020a038316606083015295945050505050565b60208082526026908201527f4f776e61626c653a206e6577206f776e657220697320746865207a65726f206160408201527f6464726573730000000000000000000000000000000000000000000000000000606082015260800190565b6020808252601c908201527f616d6f756e742063616e6e6f74206578636565642062616c616e636500000000604082015260600190565b6020808252818101527f4f776e61626c653a2063616c6c6572206973206e6f7420746865206f776e6572604082015260600190565b90815260200190565b7f4e487b7100000000000000000000000000000000000000000000000000000000600052604160045260246000fdfe60806040526000600b553480156200001657600080fd5b5060405162002501380380620025018339810160408190526200003991620002d6565b8351849084906200005290600090602085019062000185565b5080516200006890600190602084019062000185565b5050506000845111620000b2576040517f08c379a0000000000000000000000000000000000000000000000000000000008152600401620000a99062000367565b60405180910390fd5b6000835111620000f0576040517f08c379a0000000000000000000000000000000000000000000000000000000008152600401620000a9906200039e565b600082116200012d576040517f08c379a0000000000000000000000000000000000000000000000000000000008152600401620000a990620003d5565b600b829055600a8054600160a060020a031916600160a060020a0383169081179091556040516000907f8be0079c531659141344cd1fd0a4f28419497f9722a3daafe3b4186f6b6457e0908290a3505050506200048f565b82805462000193906200040a565b90600052602060002090601f016020900481019282620001b7576000855562000202565b82601f10620001d257805160ff191683800117855562000202565b8280016001018555821562000202579182015b8281111562000202578251825591602001919060010190620001e5565b506200021092915062000214565b5090565b5b8082111562000210576000815560010162000215565b600082601f8301126200023c578081fd5b81516001604060020a038082111562000259576200025962000460565b6040516020601f8401601f191682018101838111838210171562000281576200028162000460565b604052838252858401810187101562000298578485fd5b8492505b83831015620002bb57858301810151828401820152918201916200029c565b83831115620002cc57848185840101525b5095945050505050565b60008060008060808587031215620002ec578384fd5b84516001604060020a038082111562000303578586fd5b62000311888389016200022b565b9550602087015191508082111562000327578485fd5b5062000336878288016200022b565b6040870151606088015191955093509050600160a060020a03811681146200035c578182fd5b939692955090935050565b60208082526010908201527f6e616d6520697320726571756972656400000000000000000000000000000000604082015260600190565b60208082526012908201527f73796d626f6c2069732072657175697265640000000000000000000000000000604082015260600190565b6020808252818101527f6d6178546f6b656e73206d7573742062652067726561746572207468616e2030604082015260600190565b6002810460018216806200041f57607f821691505b602082108114156200045a577f4e487b7100000000000000000000000000000000000000000000000000000000600052602260045260246000fd5b50919050565b7f4e487b7100000000000000000000000000000000000000000000000000000000600052604160045260246000fd5b612062806200049f6000396000f3fe608060405234801561001057600080fd5b506004361061015f576000357c01000000000000000000000000000000000000000000000000000000009004806370a08231116100d5578063a22cb46511610099578063a22cb465146102a9578063b88d4fde146102bc578063c87b56dd146102cf578063d5abeb01146102e2578063e985e9c5146102ea578063f2fde38b146102fd5761015f565b806370a082311461025e578063715018a6146102715780638462151c146102795780638da5cb5b1461029957806395d89b41146102a15761015f565b806323b872dd1161012757806323b872dd146101ec5780632f745c59146101ff57806333eba49a1461021257806342842e0e146102255780634f6ccce7146102385780636352211e1461024b5761015f565b806301ffc9a71461016457806306fdde031461018d578063081812fc146101a2578063095ea7b3146101c257806318160ddd146101d7575b600080fd5b6101776101723660046116ad565b610310565b60405161018491906118b5565b60405180910390f35b610195610356565b60405161018491906118c0565b6101b56101b036600461172b565b6103e8565b6040516101849190611821565b6101d56101d0366004611684565b610437565b005b6101df6104d5565b6040516101849190611f1e565b6101d56101fa366004611596565b6104db565b6101df61020d366004611684565b610516565b6101d56102203660046116e5565b61056b565b6101d5610233366004611596565b610620565b6101df61024636600461172b565b61063b565b6101b561025936600461172b565b61069c565b6101df61026c366004611543565b6106d4565b6101d561071b565b61028c610287366004611543565b6107b4565b6040516101849190611871565b6101b56108e2565b6101956108f1565b6101d56102b736600461164a565b610900565b6101d56102ca3660046115d1565b6109d1565b6101956102dd36600461172b565b610a13565b6101df610a7b565b6101776102f8366004611564565b610a81565b6101d561030b366004611543565b610aaf565b6000600160e060020a031982167f780e9d6300000000000000000000000000000000000000000000000000000000148061034e575061034e82610b83565b90505b919050565b60606000805461036590611f8e565b80601f016020809104026020016040519081016040528092919081815260200182805461039190611f8e565b80156103de5780601f106103b3576101008083540402835291602001916103de565b820191906000526020600020905b8154815290600101906020018083116103c157829003601f168201915b5050505050905090565b60006103f382610bf5565b61041b5760405160e560020a62461bcd02815260040161041290611c5e565b60405180910390fd5b50600090815260046020526040902054600160a060020a031690565b60006104428261069c565b905080600160a060020a031683600160a060020a031614156104795760405160e560020a62461bcd02815260040161041290611e07565b80600160a060020a031661048b610c12565b600160a060020a031614806104a757506104a7816102f8610c12565b6104c65760405160e560020a62461bcd02815260040161041290611b12565b6104d08383610c16565b505050565b60085490565b6104ec6104e6610c12565b82610c91565b61050b5760405160e560020a62461bcd02815260040161041290611e64565b6104d0838383610d19565b6000610521836106d4565b82106105425760405160e560020a62461bcd028152600401610412906118d3565b50600160a060020a03919091166000908152600660209081526040808320938352929052205490565b610573610c12565b600160a060020a03166105846108e2565b600160a060020a0316146105ad5760405160e560020a62461bcd02815260040161041290611cbb565b600b546105b86104d5565b106105d85760405160e560020a62461bcd02815260040161041290611daa565b60006105e26104d5565b6105ed906001611f33565b6000818152600c602090815260409091208451929350610611929091850190611423565b5061061c3382610e59565b5050565b6104d0838383604051806020016040528060008152506109d1565b60006106456104d5565b82106106665760405160e560020a62461bcd02815260040161041290611ec1565b6008828154811061068a5760e060020a634e487b7102600052603260045260246000fd5b90600052602060002001549050919050565b600081815260026020526040812054600160a060020a03168061034e5760405160e560020a62461bcd02815260040161041290611bcc565b6000600160a060020a0382166106ff5760405160e560020a62461bcd02815260040161041290611b6f565b50600160a060020a031660009081526003602052604090205490565b610723610c12565b600160a060020a03166107346108e2565b600160a060020a03161461075d5760405160e560020a62461bcd02815260040161041290611cbb565b600a54604051600091600160a060020a0316907f8be0079c531659141344cd1fd0a4f28419497f9722a3daafe3b4186f6b6457e0908390a3600a805473ffffffffffffffffffffffffffffffffffffffff19169055565b606060006107c1836106d4565b9050806107de575050604080516000815260208101909152610351565b60008167ffffffffffffffff81111561080a5760e060020a634e487b7102600052604160045260246000fd5b604051908082528060200260200182016040528015610833578160200160208202803683370190505b50905060006108406104d5565b905060005b818110156108d05760006108588261063b565b905060006108658261069c565b905080600160a060020a031688600160a060020a031614156108bb5761088b8884610516565b8584815181106108ae5760e060020a634e487b7102600052603260045260246000fd5b6020026020010181815250505b505080806108c890611fc6565b915050610845565b82945050505050610351565b50919050565b600a54600160a060020a031690565b60606001805461036590611f8e565b610908610c12565b600160a060020a031682600160a060020a0316141561093c5760405160e560020a62461bcd02815260040161041290611a7e565b8060056000610949610c12565b600160a060020a03908116825260208083019390935260409182016000908120918716808252919093529120805460ff19169215159290921790915561098d610c12565b600160a060020a03167f17307eab39ab6107e8899845ad3d59bd9653f200f220920489ca2b5937696c31836040516109c591906118b5565b60405180910390a35050565b6109e26109dc610c12565b83610c91565b610a015760405160e560020a62461bcd02815260040161041290611e64565b610a0d84848484610e73565b50505050565b6060610a1e82610bf5565b610a3d5760405160e560020a62461bcd02815260040161041290611d4d565b610a45610ea9565b6000838152600c60209081526040918290209151610a659392910161176f565b6040516020818303038152906040529050919050565b600b5481565b600160a060020a03918216600090815260056020908152604080832093909416825291909152205460ff1690565b610ab7610c12565b600160a060020a0316610ac86108e2565b600160a060020a031614610af15760405160e560020a62461bcd02815260040161041290611cbb565b600160a060020a038116610b1a5760405160e560020a62461bcd0281526004016104129061198d565b600a54604051600160a060020a038084169216907f8be0079c531659141344cd1fd0a4f28419497f9722a3daafe3b4186f6b6457e090600090a3600a805473ffffffffffffffffffffffffffffffffffffffff1916600160a060020a0392909216919091179055565b6000600160e060020a031982167f80ac58cd000000000000000000000000000000000000000000000000000000001480610be65750600160e060020a031982167f5b5e139f00000000000000000000000000000000000000000000000000000000145b8061034e575061034e82610ee0565b600090815260026020526040902054600160a060020a0316151590565b3390565b6000818152600460205260409020805473ffffffffffffffffffffffffffffffffffffffff1916600160a060020a0384169081179091558190610c588261069c565b600160a060020a03167f8c5be1e5ebec7d5bd14f71427d1e84f3dd0314c0f7b2291e5b200ac8c7c3b92560405160405180910390a45050565b6000610c9c82610bf5565b610cbb5760405160e560020a62461bcd02815260040161041290611ab5565b6000610cc68361069c565b905080600160a060020a031684600160a060020a03161480610d01575083600160a060020a0316610cf6846103e8565b600160a060020a0316145b80610d115750610d118185610a81565b949350505050565b82600160a060020a0316610d2c8261069c565b600160a060020a031614610d555760405160e560020a62461bcd02815260040161041290611cf0565b600160a060020a038216610d7e5760405160e560020a62461bcd02815260040161041290611a21565b610d89838383610f12565b610d94600082610c16565b600160a060020a0383166000908152600360205260408120805460019290610dbd908490611f4b565b9091555050600160a060020a0382166000908152600360205260408120805460019290610deb908490611f33565b9091555050600081815260026020526040808220805473ffffffffffffffffffffffffffffffffffffffff1916600160a060020a0386811691821790925591518493918716917fddf252ad1be2c89b69c2b068fc378daa952ba7f163c4a11628f55a4df523b3ef91a4505050565b61061c828260405180602001604052806000815250610f9b565b610e7e848484610d19565b610e8a84848484610fd1565b610a0d5760405160e560020a62461bcd02815260040161041290611930565b60408051808201909152601481527f68747470733a2f2f617277656176652e6e65742f000000000000000000000000602082015290565b600160e060020a031981167f01ffc9a70000000000000000000000000000000000000000000000000000000014919050565b610f1d8383836104d0565b600160a060020a038316610f3957610f3481611124565b610f5c565b81600160a060020a031683600160a060020a031614610f5c57610f5c8382611168565b600160a060020a038216610f7857610f7381611205565b6104d0565b82600160a060020a031682600160a060020a0316146104d0576104d082826112e7565b610fa5838361132b565b610fb26000848484610fd1565b6104d05760405160e560020a62461bcd02815260040161041290611930565b6000610fe584600160a060020a031661141d565b156111195783600160a060020a031663150b7a02611001610c12565b8786866040518563ffffffff167c010000000000000000000000000000000000000000000000000000000002815260040161103f9493929190611835565b602060405180830381600087803b15801561105957600080fd5b505af1925050508015611089575060408051601f3d908101601f19168201909252611086918101906116c9565b60015b6110e6573d8080156110b7576040519150601f19603f3d011682016040523d82523d6000602084013e6110bc565b606091505b5080516110de5760405160e560020a62461bcd02815260040161041290611930565b805181602001fd5b600160e060020a0319167f150b7a0200000000000000000000000000000000000000000000000000000000149050610d11565b506001949350505050565b600880546000838152600960205260408120829055600182018355919091527ff3f7a9fe364faab93b216da50a3214154f22a0a2b415b23a84c8169e8b636ee30155565b60006001611175846106d4565b61117f9190611f4b565b6000838152600760205260409020549091508082146111d257600160a060020a03841660009081526006602090815260408083208584528252808320548484528184208190558352600790915290208190555b506000918252600760209081526040808420849055600160a060020a039094168352600681528383209183525290812055565b60085460009061121790600190611f4b565b600083815260096020526040812054600880549394509092849081106112505760e060020a634e487b7102600052603260045260246000fd5b9060005260206000200154905080600883815481106112825760e060020a634e487b7102600052603260045260246000fd5b60009182526020808320909101929092558281526009909152604080822084905585825281205560088054806112cb5760e060020a634e487b7102600052603160045260246000fd5b6001900381819060005260206000200160009055905550505050565b60006112f2836106d4565b600160a060020a039093166000908152600660209081526040808320868452825280832085905593825260079052919091209190915550565b600160a060020a0382166113545760405160e560020a62461bcd02815260040161041290611c29565b61135d81610bf5565b1561137d5760405160e560020a62461bcd028152600401610412906119ea565b61138960008383610f12565b600160a060020a03821660009081526003602052604081208054600192906113b2908490611f33565b9091555050600081815260026020526040808220805473ffffffffffffffffffffffffffffffffffffffff1916600160a060020a03861690811790915590518392907fddf252ad1be2c89b69c2b068fc378daa952ba7f163c4a11628f55a4df523b3ef908290a45050565b3b151590565b82805461142f90611f8e565b90600052602060002090601f0160209004810192826114515760008555611497565b82601f1061146a57805160ff1916838001178555611497565b82800160010185558215611497579182015b8281111561149757825182559160200191906001019061147c565b506114a39291506114a7565b5090565b5b808211156114a357600081556001016114a8565b600067ffffffffffffffff808411156114d7576114d7611ffa565b604051601f8501601f1916810160200182811182821017156114fb576114fb611ffa565b60405284815291508183850186101561151357600080fd5b8484602083013760006020868301015250509392505050565b8035600160a060020a038116811461035157600080fd5b600060208284031215611554578081fd5b61155d8261152c565b9392505050565b60008060408385031215611576578081fd5b61157f8361152c565b915061158d6020840161152c565b90509250929050565b6000806000606084860312156115aa578081fd5b6115b38461152c565b92506115c16020850161152c565b9150604084013590509250925092565b600080600080608085870312156115e6578081fd5b6115ef8561152c565b93506115fd6020860161152c565b925060408501359150606085013567ffffffffffffffff81111561161f578182fd5b8501601f8101871361162f578182fd5b61163e878235602084016114bc565b91505092959194509250565b6000806040838503121561165c578182fd5b6116658361152c565b915060208301358015158114611679578182fd5b809150509250929050565b60008060408385031215611696578182fd5b61169f8361152c565b946020939093013593505050565b6000602082840312156116be578081fd5b813561155d81612013565b6000602082840312156116da578081fd5b815161155d81612013565b6000602082840312156116f6578081fd5b813567ffffffffffffffff81111561170c578182fd5b8201601f8101841361171c578182fd5b610d11848235602084016114bc565b60006020828403121561173c578081fd5b5035919050565b6000815180845261175b816020860160208601611f62565b601f01601f19169290920160200192915050565b6000835160206117828285838901611f62565b84549184019183906002810460018083168061179f57607f831692505b8583108114156117c05760e060020a634e487b710288526022600452602488fd5b8080156117d457600181146117e557611811565b60ff19851688528388019550611811565b6117ee8b611f27565b895b858110156118095781548a8201529084019088016117f0565b505083880195505b50939a9950505050505050505050565b600160a060020a0391909116815260200190565b6000600160a060020a038087168352808616602084015250836040830152608060608301526118676080830184611743565b9695505050505050565b6020808252825182820181905260009190848201906040850190845b818110156118a95783518352928401929184019160010161188d565b50909695505050505050565b901515815260200190565b60006020825261155d6020830184611743565b6020808252602b908201527f455243373231456e756d657261626c653a206f776e657220696e646578206f7560408201527f74206f6620626f756e6473000000000000000000000000000000000000000000606082015260800190565b60208082526032908201527f4552433732313a207472616e7366657220746f206e6f6e20455243373231526560408201527f63656976657220696d706c656d656e7465720000000000000000000000000000606082015260800190565b60208082526026908201527f4f776e61626c653a206e6577206f776e657220697320746865207a65726f206160408201527f6464726573730000000000000000000000000000000000000000000000000000606082015260800190565b6020808252601c908201527f4552433732313a20746f6b656e20616c7265616479206d696e74656400000000604082015260600190565b60208082526024908201527f4552433732313a207472616e7366657220746f20746865207a65726f2061646460408201527f7265737300000000000000000000000000000000000000000000000000000000606082015260800190565b60208082526019908201527f4552433732313a20617070726f766520746f2063616c6c657200000000000000604082015260600190565b6020808252602c908201527f4552433732313a206f70657261746f7220717565727920666f72206e6f6e657860408201527f697374656e7420746f6b656e0000000000000000000000000000000000000000606082015260800190565b60208082526038908201527f4552433732313a20617070726f76652063616c6c6572206973206e6f74206f7760408201527f6e6572206e6f7220617070726f76656420666f7220616c6c0000000000000000606082015260800190565b6020808252602a908201527f4552433732313a2062616c616e636520717565727920666f7220746865207a6560408201527f726f206164647265737300000000000000000000000000000000000000000000606082015260800190565b60208082526029908201527f4552433732313a206f776e657220717565727920666f72206e6f6e657869737460408201527f656e7420746f6b656e0000000000000000000000000000000000000000000000606082015260800190565b6020808252818101527f4552433732313a206d696e7420746f20746865207a65726f2061646472657373604082015260600190565b6020808252602c908201527f4552433732313a20617070726f76656420717565727920666f72206e6f6e657860408201527f697374656e7420746f6b656e0000000000000000000000000000000000000000606082015260800190565b6020808252818101527f4f776e61626c653a2063616c6c6572206973206e6f7420746865206f776e6572604082015260600190565b60208082526029908201527f4552433732313a207472616e73666572206f6620746f6b656e2074686174206960408201527f73206e6f74206f776e0000000000000000000000000000000000000000000000606082015260800190565b6020808252602f908201527f4552433732314d657461646174613a2055524920717565727920666f72206e6f60408201527f6e6578697374656e7420746f6b656e0000000000000000000000000000000000606082015260800190565b60208082526029908201527f546865206d696e7420636f756e74206578636565647320746865206d6178696d60408201527f756d20737570706c790000000000000000000000000000000000000000000000606082015260800190565b60208082526021908201527f4552433732313a20617070726f76616c20746f2063757272656e74206f776e6560408201527f7200000000000000000000000000000000000000000000000000000000000000606082015260800190565b60208082526031908201527f4552433732313a207472616e736665722063616c6c6572206973206e6f74206f60408201527f776e6572206e6f7220617070726f766564000000000000000000000000000000606082015260800190565b6020808252602c908201527f455243373231456e756d657261626c653a20676c6f62616c20696e646578206f60408201527f7574206f6620626f756e64730000000000000000000000000000000000000000606082015260800190565b90815260200190565b60009081526020902090565b60008219821115611f4657611f46611fe1565b500190565b600082821015611f5d57611f5d611fe1565b500390565b60005b83811015611f7d578181015183820152602001611f65565b83811115610a0d5750506000910152565b600281046001821680611fa257607f821691505b602082108114156108dc5760e060020a634e487b7102600052602260045260246000fd5b6000600019821415611fda57611fda611fe1565b5060010190565b60e060020a634e487b7102600052601160045260246000fd5b60e060020a634e487b7102600052604160045260246000fd5b600160e060020a03198116811461202957600080fd5b5056fea2646970667358221220060e525aace3f41eb450213a4b7b302487e6d02228d11a7fd86572d6d793eed764736f6c63430008000033a26469706673582212205b28362f4fec59fef3744d699441780b10737028b9bcf75d3842011a9d435e1164736f6c63430008000033",
  "immutableReferences": {},
  "source": "// SPDX-License-Identifier: MIT\r\npragma solidity ^0.8.0;\r\n\r\nimport \"@openzeppelin/contracts/access/Ownable.sol\";\r\nimport \"./NftCollection.sol\";\r\n\r\ncontract NftFactory is Ownable {\r\n    uint256 private _price = 1000000000000000000;\r\n    address private _owner;\r\n\r\n    mapping (address => address[]) private _walletContracts;\r\n    address[] private _wallets;\r\n\r\n    event CollectionCreated(address owner, address contractAddress);\r\n    event OwnerWithdrawal(address owner, uint amount);\r\n\r\n    //TODO: add variables and functions for storing challenges and wins\r\n    //TODO: add logic for minting new NFTs after so many wins\r\n    //TODO: Can a node service load the private key of this contract owner in order to update the wins?\r\n\r\n    function createCollection(string memory name, string memory symbol, uint maxTokens) external payable {\r\n\r\n        require(msg.value >= _price, string(abi.encodePacked(\"The price to create a collection was not met.\")));\r\n\r\n        NftCollection coll = new NftCollection(name, symbol, maxTokens, msg.sender);\r\n        address addr = address(coll);\r\n\r\n        //check if this wallet has been added to the mapping yet\r\n        bool exists = _walletContracts[msg.sender].length > 0;\r\n        if (!exists) {\r\n            //track wallets in separate array\r\n            _wallets.push(msg.sender);\r\n        }\r\n        \r\n        //add adress to the wallet's mapping\r\n        _walletContracts[msg.sender].push(addr);\r\n\r\n        emit CollectionCreated(msg.sender, addr);\r\n    }\r\n\r\n    function getWallets() external view returns (address[] memory) {\r\n        return _wallets;\r\n    }\r\n\r\n    function getWalletContracts(address wallet) external view returns (address[] memory) {\r\n        return _walletContracts[wallet];\r\n    }\r\n\r\n    // function getWalletContracts() external view returns (address[] memory) {\r\n    //     return _walletContracts[msg.sender];\r\n    // }\r\n\r\n    function getCurrentPrice() external view returns (uint256) {\r\n        return _price;\r\n    }\r\n\r\n    function updatePrice(uint256 newPrice) external onlyOwner {\r\n        require(newPrice >= 0, \"the new price can not be less than zero\");\r\n        _price = newPrice;\r\n    }\r\n\r\n    function getBalance() external view onlyOwner returns (uint) {\r\n        return address(this).balance;\r\n    }\r\n\r\n    function withdraw(address to, uint amount) external onlyOwner {\r\n        // get the amount of Ether stored in this contract\r\n        uint bal = address(this).balance;\r\n        require(bal > amount, \"amount cannot exceed balance\");\r\n        payable(to).transfer(amount);\r\n        OwnerWithdrawal(to, amount);\r\n    }\r\n}\r\n",
  "sourcePath": "C:/__/NFT/nft-minter/solidity/contracts/NftFactory.sol",
  "compiler": {
    "name": "solc",
    "version": "0.8.0+commit.c7dfd78e.Emscripten.clang"
  },
  "schemaVersion": "3.3.4",
  "updatedAt": "2021-08-04T02:08:43.433Z",
  "networkType": "ethereum",
  "devdoc": {
    "kind": "dev",
    "methods": {
      "owner()": {
        "details": "Returns the address of the current owner."
      },
      "renounceOwnership()": {
        "details": "Leaves the contract without owner. It will not be possible to call `onlyOwner` functions anymore. Can only be called by the current owner. NOTE: Renouncing ownership will leave the contract without an owner, thereby removing any functionality that is only available to the owner."
      },
      "transferOwnership(address)": {
        "details": "Transfers ownership of the contract to a new account (`newOwner`). Can only be called by the current owner."
      }
    },
    "version": 1
  },
  "userdoc": {
    "kind": "user",
    "methods": {},
    "version": 1
  }
}